:020000040800F2
:1000000000500020953F0008B1110008B31100080E
:10001000B5110008B7110008B91100080000000070
:100020000000000000000000000000007126000831
:10003000BB1100080000000011270008BD110008D6
:10004000DD3F0008DD3F0008DD3F0008DD3F000820
:10005000DD3F0008DD3F0008DD3F0008DD3F000810
:10006000DD3F0008DD3F0008DD3F0008DD3F000800
:10007000DD3F0008DD3F0008DD3F0008DD3F0008F0
:10008000DD3F0008DD3F0008DD3F0008DD3F0008E0
:10009000DD3F0008DD3F0008DD3F0008DD3F0008D0
:1000A000DD3F0008DD3F0008DD3F0008DD3F0008C0
:1000B000DD3F0008DD3F0008DD3F0008DD3F0008B0
:1000C000DD3F0008DD3F0008DD3F0008DD3F0008A0
:1000D000DD3F0008DD3F0008DD3F0008DD3F000890
:1000E000DD3F0008DD3F0008DD3F000800000000A4
:1000F0000000000000000000000000000000000000
:0C01000000000000000000005FF808F1A3
:1001100010B5054C237833B9044B13B10448AFF341
:1001200000800123237010BDE80A002000000000B9
:100130002CA0000808B5034B1BB103490348AFF3DB
:10014000008008BD00000000EC0A00202CA0000880
:10015000844641EA000313F0030349D1403A23D314
:100160000B6803604B6843608B688360CB68C36037
:100170000B6903614B6943618B698361CB69C3611F
:100180000B6A03624B6A43628B6A8362CB6AC36207
:100190000B6B03634B6B43638B6B8363CB6BC363EF
:1001A00040304031403ADBD230320BD30B68036031
:1001B0004B6843608B688360CB68C360103010313C
:1001C000103AF3D20C3205D351F8043B40F8043B0B
:1001D000043AF9D2043208D0D2071CBF11F8013B0F
:1001E00000F8013B01D30B8803806046704700BFD5
:1001F000082A13D38B07B1D010F00303AED0C3F19C
:100200000403D21ADB071CBF11F8013B00F8013BC5
:10021000A4D331F8023B20F8023B9FE7043AD9D33C
:10022000013A11F8013B00F8013BF9D20B78037059
:100230004B7843708B7883706046704781F0004143
:1002400002E000BF83F0004330B54FEA41044FEABB
:10025000430594EA050F08BF90EA020F1FBF54EA56
:10026000000C55EA020C7FEA645C7FEA655C00F0F2
:10027000E2804FEA5454D4EB5555B8BF6D420CDDC3
:100280002C4480EA020281EA030382EA000083EA46
:10029000010180EA020281EA0303362D88BF30BDE6
:1002A00011F0004F4FEA01314FF4801C4CEA11313C
:1002B00002D0404261EB410113F0004F4FEA03339B
:1002C0004CEA133302D0524263EB430394EA050F26
:1002D00000F0A780A4F10104D5F1200E0DDB02FA95
:1002E0000EFC22FA05F2801841F1000103FA0EF229
:1002F000801843FA05F359410EE0A5F120050EF1EF
:10030000200E012A03FA0EFC28BF4CF0020C43FA1F
:1003100005F3C01851EBE37101F0004507D54FF02C
:10032000000EDCF1000C7EEB00006EEB0101B1F57C
:10033000801F1BD3B1F5001F0CD349085FEA3000C2
:100340004FEA3C0C04F101044FEA445212F5800FCD
:1003500080F09A80BCF1004F08BF5FEA500C50F16A
:10036000000041EB045141EA050130BD5FEA4C0C4D
:10037000404141EB0101013C28BFB1F5801FE9D2AA
:1003800091F0000F04BF01460020B1FA81F308BFCD
:100390002033A3F10B03B3F120020CDA0C3208DD99
:1003A00002F1140CC2F10C0201FA0CF021FA02F174
:1003B0000CE002F11402D8BFC2F1200C01FA02F1E4
:1003C00020FA0CFCDCBF41EA0C019040E41AA2BF09
:1003D00001EB0451294330BD6FEA04041F3C1CDAD1
:1003E0000C340EDC04F11404C4F1200220FA04F0F1
:1003F00001FA02F340EA030021FA04F345EA03019B
:1004000030BDC4F10C04C4F1200220FA02F001FA5C
:1004100004F340EA0300294630BD21FA04F02946DE
:1004200030BD94F0000F83F4801306BF81F4801177
:100430000134013D4EE77FEA645C18BF7FEA655CEA
:1004400029D094EA050F08BF90EA020F05D054EABC
:10045000000C04BF1946104630BD91EA030F1EBFC1
:100460000021002030BD5FEA545C05D140004941C5
:1004700028BF41F0004130BD14F580043CBF01F5B8
:10048000801130BD01F0004545F0FE4141F470019E
:100490004FF0000030BD7FEA645C1ABF1946104679
:1004A0007FEA655C1CBF0B46024650EA013406BF7A
:1004B00052EA033591EA030F41F4002130BD00BF39
:1004C00090F0000F04BF0021704730B54FF48064F6
:1004D00004F132044FF000054FF0000150E700BF77
:1004E00090F0000F04BF0021704730B54FF48064D6
:1004F00004F1320410F0004548BF40424FF00001C3
:100500003EE700BF42004FEAE2014FEA31014FEA05
:1005100002701FBF12F07F4393F07F4F81F0605154
:10052000704732F07F4208BF704793F07F4F04BF9F
:1005300041F40021704730B54FF4607401F000457C
:1005400021F000411CE700BF50EA010208BF7047DC
:1005500030B54FF000050AE050EA010208BF7047CD
:1005600030B511F0004502D5404261EB41014FF436
:10057000806404F132045FEA915C3FF4D8AE4FF03E
:1005800003025FEADC0C18BF03325FEADC0C18BF21
:10059000033202EBDC02C2F1200300FA03FC20FA72
:1005A00002F001FA03FE40EA0E0021FA02F11444BF
:1005B000BDE600BF70B54FF0FF0C4CF4E06C1CEAD8
:1005C00011541DBF1CEA135594EA0C0F95EA0C0F49
:1005D00000F0DEF82C4481EA030621EA4C5123EABC
:1005E0004C5350EA013518BF52EA033541F48011EB
:1005F00043F4801338D0A0FB02CE4FF00005E1FB9E
:1006000002E506F00042E0FB03E54FF00006E1FBE7
:1006100003569CF0000F18BF4EF0010EA4F1FF042A
:10062000B6F5007F64F5407404D25FEA4E0E6D416A
:1006300046EB060642EAC62141EA55514FEAC5207B
:1006400040EA5E504FEACE2EB4F1FD0C88BFBCF5F7
:10065000E06F1ED8BEF1004F08BF5FEA500E50F1A8
:10066000000041EB045170BD06F0004646EA01016E
:1006700040EA020081EA0301B4EB5C04C2BFD4EBA0
:100680000C0541EA045170BD41F480114FF0000E99
:10069000013C00F3AB8014F1360FDEBF002001F007
:1006A000004170BDC4F10004203C35DA0C341BDC81
:1006B00004F11404C4F1200500FA05F320FA04F053
:1006C00001FA05F240EA020001F0004221F0004187
:1006D00010EBD37021FA04F642EB06015EEA430EFA
:1006E00008BF20EAD37070BDC4F10C04C4F120052A
:1006F00000FA04F320FA05F001FA04F240EA0200DD
:1007000001F0004110EBD37041F100015EEA430EAD
:1007100008BF20EAD37070BDC4F1200500FA05F2CD
:100720004EEA020E20FA04F301FA05F243EA02034C
:1007300021FA04F001F0004121FA04F220EA02005B
:1007400000EBD3705EEA430E08BF20EAD37070BDA1
:1007500094F0000F0FD101F00046400041EB010181
:1007600011F4801F08BF013CF7D041EA060195F063
:10077000000F18BF704703F00046520043EB03031D
:1007800013F4801F08BF013DF7D043EA060370470A
:1007900094EA0C0F0CEA135518BF95EA0C0F0CD015
:1007A00050EA410618BF52EA4306D1D181EA03015B
:1007B00001F000414FF0000070BD50EA410606BF55
:1007C0001046194652EA430619D094EA0C0F02D19A
:1007D00050EA013613D195EA0C0F05D152EA0336DF
:1007E0001CBF104619460AD181EA030101F00041FD
:1007F00041F0FE4141F470014FF0000070BD41F046
:10080000FE4141F4780170BD70B54FF0FF0C4CF41F
:10081000E06C1CEA11541DBF1CEA135594EA0C0F3E
:1008200095EA0C0F00F0A7F8A4EB050481EA030E8B
:1008300052EA03354FEA013100F088804FEA033372
:100840004FF0805545EA131343EA12634FEA022240
:1008500045EA111545EA10654FEA00260EF0004101
:100860009D4208BF964244F1FD0404F5407402D253
:100870005B084FEA3202B61A65EB03055B084FEAE4
:1008800032024FF480104FF4002CB6EB020E75EBE1
:10089000030E22BFB61A754640EA0C005B084FEA09
:1008A0003202B6EB020E75EB030E22BFB61A754686
:1008B00040EA5C005B084FEA3202B6EB020E75EBD1
:1008C000030E22BFB61A754640EA9C005B084FEA49
:1008D0003202B6EB020E75EB030E22BFB61A754656
:1008E00040EADC0055EA060E18D04FEA051545EA45
:1008F00016754FEA06164FEAC30343EA52734FEAEE
:10090000C2025FEA1C1CC0D111F4801F0BD141EA66
:1009100000014FF000004FF0004CB6E711F4801FCB
:1009200004BF01430020B4F1FD0C88BFBCF5E06FAB
:100930003FF6AFAEB5EB030C04BFB6EB020C5FEABB
:10094000500C50F1000041EB045170BD0EF0004E10
:100950004EEA113114EB5C04C2BFD4EB0C0541EA42
:10096000045170BD41F480114FF0000E013C90E63F
:1009700045EA060E8DE60CEA135594EA0C0F08BF03
:1009800095EA0C0F3FF43BAF94EA0C0F0AD150EA02
:1009900001347FF434AF95EA0C0F7FF425AF104695
:1009A00019462CE795EA0C0F06D152EA03353FF4BD
:1009B000FDAE1046194622E750EA410618BF52EA3A
:1009C00043067FF4C5AE50EA41047FF40DAF52EA0E
:1009D00043057FF4EBAE12E74FF0FF3C06E000BFAB
:1009E0004FF0010C02E000BF4FF0010C4DF804CDB8
:1009F0004FEA410C7FEA6C5C4FEA430C18BF7FEA78
:100A00006C5C1BD001B050EA410C0CBF52EA430CA5
:100A100091EA030F02BF90EA020F0020704710F125
:100A2000000F91EA030F58BF994208BF90422CBFB4
:100A3000D8176FEAE37040F0010070474FEA410CAD
:100A40007FEA6C5C02D150EA013C07D14FEA430CCB
:100A50007FEA6C5CD6D152EA033CD3D05DF8040B3C
:100A6000704700BF8446104662468C46194663466E
:100A700000E000BF01B5FFF7B7FF002848BF10F145
:100A8000000F01BD4DF808EDFFF7F4FF0CBF01208A
:100A900000205DF808FB00BF4DF808EDFFF7EAFF06
:100AA00034BF012000205DF808FB00BF4DF808EDC1
:100AB000FFF7E0FF94BF012000205DF808FB00BFB6
:100AC0004DF808EDFFF7CEFF94BF012000205DF840
:100AD00008FB00BF4DF808EDFFF7C4FF34BF01204D
:100AE00000205DF808FB00BF4FEA410C7FEA6C5C18
:100AF00002D150EA013C0AD14FEA430C7FEA6C5C18
:100B000002D152EA033C02D14FF0000070474FF08F
:100B1000010070474FEA410212F5001215D211D5BB
:100B20006FF47873B3EB625212D94FEAC12343F0EA
:100B3000004343EA505311F0004F23FA02F018BF6C
:100B4000404270474FF00000704750EA013005D135
:100B500011F0004008BF6FF0004070474FF00000F8
:100B6000704700BF53B94AB9002908BF00281CBF0D
:100B70004FF0FF314FF0FF3000F076B9ADF1080CC7
:100B80006DE904CE00F006F8DDF804E0DDE90223AB
:100B900004B070472DE9F047089E0D46044688468C
:100BA000002B4DD18A42944668D9B2FA82F252B1F2
:100BB00001FA02F3C2F1200120FA01F10CFA02FC61
:100BC00041EA030894404FEA1C41B8FBF1F71FFAD1
:100BD0008CFE01FB178807FB0EF0230C43EA084349
:100BE00098420AD91CEB030307F1FF3580F01E8100
:100BF000984240F21B81023F63441B1AB3FBF1F0A1
:100C000001FB103300FB0EFEA4B244EA0344A645E8
:100C10000AD91CEB040400F1FF3380F00981A645DA
:100C200040F20681644402380021A4EB0E0440EA3D
:100C300007401EB10023D440C6E90043BDE8F08759
:100C40008B4208D9002E00F0EE800021C6E9000595
:100C50000846BDE8F087B3FA83F100294AD1AB42D8
:100C600002D3824200F2FC80841A65EB0303012068
:100C70009846002EE2D0C6E90048DFE702B9FFDE61
:100C8000B2FA82F2002A40F09180A1EB0C0001211F
:100C90004FEA1C471FFA8CFEB0FBF7F307FB13006B
:100CA000250C45EA00450EFB03F0A84208D91CEBD1
:100CB000050503F1FF3802D2A84200F2CE80434678
:100CC0002D1AB5FBF7F007FB10550EFB00FEA4B282
:100CD00044EA0544A64508D91CEB040400F1FF359D
:100CE00002D2A64500F2B6802846A4EB0E0440EAE4
:100CF00003409EE7C1F120078B4022FA07FC4CEA33
:100D0000030C25FA07FA4FEA1C49BAFBF9F820FA56
:100D100007F309FB18AA8D401FFA8CFE1D4300FA49
:100D200001F308FB0EF02C0C44EA0A44A04202FA3C
:100D300001F20BD91CEB040408F1FF3A80F0888023
:100D4000A04240F28580A8F102086444241AB4FB52
:100D5000F9F009FB104400FB0EFEADB245EA044475
:100D6000A64508D91CEB040400F1FF356CD2A6455A
:100D70006AD90238644440EA0840A0FB0295A4EB1B
:100D80000E04AC42C846AE4656D353D0002E69D0AE
:100D9000B3EB080264EB0E0422FA01F304FA07F73E
:100DA0001F43CC40C6E90074002147E70CFA02FC5F
:100DB000C2F1200125FA01F34FEA1C4720FA01F1A4
:100DC00095400D43B3FBF7F107FB11331FFA8CFE7F
:100DD000280C40EA034001FB0EF3834204FA02F4BC
:100DE00008D91CEB000001F1FF382FD283422DD926
:100DF00002396044C01AB0FBF7F307FB1300ADB231
:100E000045EA004503FB0EF0A84208D91CEB050596
:100E100003F1FF3816D2A84214D9023B6544281AC0
:100E200043EA014138E73146304607E72F46E4E61A
:100E30001846F9E64B45A9D2B9EB020865EB0C0E52
:100E40000138A3E74346EAE7284694E74146D1E75D
:100E5000D0467BE76444023847E7023B65442FE70E
:100E6000084606E73146E9E6704700BF00B587B09F
:100E70000023029303930493059303F1804303F546
:100E800004339A6942F008029A619A6902F00802F2
:100E90000092009A9A6942F004029A619B6903F0F9
:100EA00004030193019B4FF4E0430293054B03932A
:100EB0000123049302A9044800F05EFB07B05DF82B
:100EC00004FB00BF00002110000C014008B5012008
:100ED00001F006FBFBE7000010B50446482202497A
:100EE000FFF736F9204610BD080B002072B6FEE76A
:100EF00000B58BB0002308930993019302930393E9
:100F000004930593069307932248234A02604360A3
:100F100083604FF6FF72C2600361836101F02EF8B7
:100F200058BB00230893099308A91A4801F06AF9ED
:100F300028BB60230193002202920392059201A92B
:100F4000144801F079F8E0B904220DEB02011148D0
:100F500001F072F8B8B9082201A90E4801F06CF846
:100F600098B90C2201A90B4801F066F878B9094834
:100F700000F0BAF80BB05DF804FBFFF7B7FFFFF71E
:100F8000B5FFFFF7B3FFFFF7B1FFFFF7AFFFFFF7C5
:100F9000ADFF00BF080B00200008004008B50A485C
:100FA0000A4B03604FF4E133436000238360C36066
:100FB00003610C2242618361C36101F0A3F900B9AE
:100FC00008BDFFF793FF00BF500B00200038014021
:100FD00000B591B02822002106A803F02BF80023C9
:100FE0000193029303930493059302230693012331
:100FF0000A9310230B9306A800F0E6FB68B90F23B1
:1010000001930021029103910491059101A800F040
:101010001BFE20B911B05DF804FBFFF767FFFFF777
:1010200065FF000008B500F025FAFFF7D1FFFFF7D4
:101030001DFFFFF75DFFFFF7B1FF00F0E5F901F0DD
:1010400091F9064A0021064801F0D4F9054B1860D1
:1010500000F0B8F901F0A8F9FEE700BF54A00008BD
:10106000CD0E0008040B002000B583B0114B9A6927
:1010700042F001029A619A6902F001020092009A1C
:10108000DA6942F08052DA61DB6903F08053019340
:10109000019B00220F216FF0010000F021FA064AA7
:1010A000536823F0E06343F00073536003B05DF8CE
:1010B00004FB00BF00100240000001400268094B21
:1010C0009A4200D0704782B003F50233DA6942F0E9
:1010D0000402DA61DB6903F004030193019B02B0AF
:1010E000704700BF0008004000B587B0002302939E
:1010F00003930493059302680D4B9A4202D007B004
:101100005DF804FB03F502339A6942F008029A6124
:101110009B6903F008030193019B4FF470730293E2
:1011200002230393059302A9024800F025FAE6E79B
:1011300000080040000C014010B586B00023029367
:101140000393049305930268174B9A4201D006B0AB
:1011500010BD03F558439A6942F480429A619A6936
:1011600002F480420092009A9A6942F004029A6165
:101170009B6903F004030193019B4FF400730293F6
:101180000223039303230593084C02A9204600F091
:10119000F3F94FF48063029300230393049302A9AD
:1011A000204600F0E9F9D2E700380140000801408C
:1011B000FEE7FEE7FEE7FEE7FEE7704708B500F052
:1011C0006BF902F077FC012800D108BD01F0C2FAEA
:1011D000FBE70120704708B502F002FF1623036009
:1011E0004FF0FF3008BD08B54FF0FF31FFF7F3FFB8
:1011F000FEE770B50C461646002506E0AFF300800A
:10120000214601F8010B01350C46B542F6DB3046AC
:1012100070BD70B50C461646002504E014F8010BAD
:10122000AFF300800135B542F8DB304670BD0000F9
:1012300008B503460B4A126842B10A4A10680344D3
:101240006A46934206D8074A136008BD054A064914
:101250001160F2E702F0C4FE0C2303604FF0FF3090
:10126000F3E700BF940B0020802500204FF0FF30F3
:1012700070474FF400534B600020704701207047C7
:10128000002070477047000070B588B0602301935C
:10129000800302900024039405940DE0084B53F85A
:1012A0002460084D324601A9284600F0C5FE3146AB
:1012B000284600F039FF0134032CEFDD08B070BD83
:1012C00064A10008980B002070B588B060230193DA
:1012D00002900024039405940DE0094B53F8246018
:1012E000084D324601A9284600F0A6FE31462846A0
:1012F00000F01AFF0134032CEFDD08B070BD00BF11
:1013000064A10008980B002007490B8801335A425A
:1013100003F07F0302F07F0258BF53429BB20B8061
:10132000024A32F813007047E60B0020300000201C
:1013300008490A880132084B83FB0203DB1003EBE8
:1013400083039800131A9BB20B80044A32F81300EF
:10135000704700BFE40B0020676666660800002047
:1013600008B58623134A1449144802F0B5FE09E073
:10137000134B5B78012B12D0022B15D053B13220C6
:1013800001F0AEF80E4B1B78002BF1D10020FFF7D7
:101390007BFFF4E70A4B9878FFF776FFEFE7FFF75C
:1013A000C7FFFFF771FFEAE7FFF7AEFFFFF78CFF1C
:1013B000E5E700BF54A1000890A00008F8A00008CD
:1013C0000400002010B582B00A4B01930223009361
:1013D00000234FF480620849084802F095F804465B
:1013E00010B9204602B010BD02460549054802F07A
:1013F00073FEF6E7E00B002020A10008611300084F
:1014000044A1000830A1000800B593B06846FFF77A
:1014100063FD482269460348FEF79AFE13B05DF863
:1014200004FB00BF980B002010B504460E4B187843
:101430004FF47A73B3FBF0F30C4A1068B0FBF3F08F
:1014400000F086F868B90F2C01D901200AE00022CB
:1014500021464FF0FF3000F043F8054B1C600020A0
:1014600000E0012010BD00BF30010020000000207E
:101470003401002008B5074A136843F010031360D5
:10148000032000F01BF80F20FFF7CEFFFFF7ECFD65
:10149000002008BD00200240034A1168034B1B785E
:1014A0000B441360704700BFE80B002030010020A0
:1014B000014B1868704700BFE80B0020074AD3684B
:1014C00023F4E0631B041B0C000200F4E060034300
:1014D00043F0BF6343F40033D360704700ED00E096
:1014E00000B5194BDB68C3F30223C3F1070CBCF151
:1014F000040F28BF4FF0040C03F1040EBEF1060FD9
:1015000018D9033B4FF0FF3E0EFA0CFC21EA0C0108
:1015100099400EFA03F322EA0303194300280BDB78
:101520000901C9B200F1604000F5614080F8001384
:101530005DF804FB0023E5E700F00F000901C9B2E4
:10154000024B1954F4E700BF00ED00E014ED00E099
:101550000138B0F1807F0BD24FF0E0235861054A8B
:10156000F02182F823100020986107221A61704749
:101570000120704700ED00E070B582B00024A44661
:10158000A6E0804DAA4210D007D97F4DAA420CD0C8
:1015900005F58035AA4208D013E0A5F58015AA42CA
:1015A00003D005F57025AA4207D18A68002A58D0D1
:1015B000012A51D04361082403E0A5F58015AA4211
:1015C000F3D0BEF1FF0F4ED80646BEF1FF0F4CD848
:1015D0004FEA8C0233680F25954023EA050304FA8D
:1015E00002F2134333604B6813F0805F6ED0674B99
:1015F0009A6942F001029A619B6903F00103019329
:10160000019B4FEA9C02951C614B53F825600CF03E
:1016100003039D000F23AB4026EA03065D4B98426F
:1016200029D003F58063984200F08E8003F5806333
:10163000984200F08B8003F58063984219D0042310
:101640001AE0CC68BDE7CC680434BAE7CC6808344B
:10165000B7E7CC680C34B4E703610824B1E7002491
:10166000AFE70424ADE7061DAFE7ACF10802920036
:10167000B0E7032300E00023AB4033430232444D84
:1016800045F822304B6813F4803F61D0424A13681A
:1016900043EA0E0313604B6813F4003F5ED03E4AEA
:1016A000536843EA0E0353604B6813F4801F5BD00A
:1016B000394A936843EA0E0393604B6813F4001FA2
:1016C00058D0354AD36843EA0E03D3600CF1010CBD
:1016D0000A6832FA0CF353D0012303FA0CF302EA3E
:1016E000030E33EA0202F1D14A68122A3FF649AFEB
:1016F000122A3FF666AF01A555F822F0AB15000897
:10170000431600084D1600085F160008C3150008B0
:10171000C3150008C3150008C3150008C315000849
:10172000C3150008C3150008C3150008C315000839
:10173000C3150008C3150008C3150008C315000829
:101740004716000853160008012395E7022393E784
:10175000114A136823EA0E0313609CE70E4A53688C
:1017600023EA0E0353609FE70B4A936823EA0E03B4
:101770009360A2E7084AD36823EA0E03D360A5E783
:1017800002B070BD000022100000311000100240B5
:1017900000000140000801400004014082B0084BF5
:1017A0001B68084AA2FB03235B0A00FB03F30193B7
:1017B00000BF019B5A1E0192002BF9D102B0704765
:1017C00000000020D34D6210002800F0F18170B5B8
:1017D00082B00446036813F0010F2CD0994B5B686C
:1017E00003F00C03042B1DD0964B5B6803F00C0335
:1017F000082B12D06368B3F5803F41D0002B55D140
:1018000003F1804303F504331A6822F480321A602E
:101810001A6822F480221A6037E08A4B5B6813F45E
:10182000803FE7D0874B1B6813F4003F03D0636809
:10183000002B00F0BF81236813F0020F75D0814B9D
:101840005B6813F00C0F5FD07E4B5B6803F00C03FA
:10185000082B54D02369002B00F08A807A4B012298
:101860001A60FFF725FE0546764B1B6813F0020F42
:1018700075D1FFF71DFE401B0228F5D903209EE11C
:10188000704A136843F480331360636843B3FFF70F
:101890000FFE05466B4B1B6813F4003FCBD1FFF7DF
:1018A00007FE401B6428F5D9032088E1B3F5A02F7B
:1018B00009D0644B1A6822F480321A601A6822F444
:1018C00080221A60E1E703F18043A3F53C331A68F4
:1018D00042F480221A601A6842F480321A60D4E717
:1018E000FFF7E6FD0546574B1B6813F4003FA2D0F7
:1018F000FFF7DEFD401B6428F5D903205FE1514B63
:101900005B6813F4803FA5D14E4B1B6813F0020FA8
:1019100003D02369012B40F04F814A4A136823F01A
:10192000F803616943EAC1031360236813F0080FE9
:1019300033D0A369002B5CD0434B0122C3F8802431
:10194000FFF7B6FD05463F4B5B6A13F0020F21D14E
:10195000FFF7AEFD401B0228F5D903202FE1394ADD
:10196000136823F0F803616943EAC1031360DCE7FD
:10197000354B00221A60FFF79BFD0546314B1B6873
:1019800013F0020FD1D0FFF793FD401B0228F5D9C9
:10199000032014E10120FFF701FF236813F0040F77
:1019A00000F09680274BDB6913F0805F34D1254B24
:1019B000DA6942F08052DA61DB6903F08053019307
:1019C000019B0125214B1B6813F4807F26D0E3681F
:1019D000012B3DD0002B53D103F1804303F5043399
:1019E0001A6A22F001021A621A6A22F004021A62CA
:1019F00033E0154B0022C3F88024FFF759FD05465C
:101A0000104B5B6A13F0020FC7D0FFF751FD401B6C
:101A10000228F5D90320D2E00025D3E70B4A13684A
:101A200043F480731360FFF743FD0646074B1B68C2
:101A300013F4807FCBD1FFF73BFD801B6428F5D9E1
:101A40000320BCE000100240000042420070004051
:101A50005F4A136A43F001031362E36833B3FFF78D
:101A600027FD06465A4B1B6A13F0020F2FD1FFF7D2
:101A70001FFD801B41F288339842F3D903209EE07A
:101A8000052B09D0524B1A6A22F001021A621A6A17
:101A900022F004021A62E0E74D4B1A6A42F0040297
:101AA0001A621A6A42F001021A62D6E7FFF700FDD5
:101AB0000646474B1B6A13F0020F08D0FFF7F8FCED
:101AC000801B41F288339842F3D9032077E0E5B9CF
:101AD000E369002B72D03E4A526802F00C02082AD9
:101AE00056D0022B17D03B4B00221A66FFF7E0FCC2
:101AF0000446374B1B6813F0007F47D0FFF7D8FC34
:101B0000001B0228F5D9032059E0314AD36923F09C
:101B10008053D361DCE72F4B00221A66FFF7C8FC25
:101B200005462B4B1B6813F0007F06D0FFF7C0FC67
:101B3000401B0228F5D9032041E0236AB3F5803F1A
:101B40001AD023494B6823F47413226A606A024353
:101B500013434B601F4B01221A66FFF7A9FC044692
:101B60001B4B1B6813F0007F0ED1FFF7A1FC001B7D
:101B70000228F5D9032022E0154A536823F40033E4
:101B8000A1680B435360DCE7002018E0002016E05A
:101B9000012B16D00E4B5B6803F48031226A914210
:101BA00011D103F47013626A93420ED1002006E053
:101BB00001207047012002E0012000E0002002B077
:101BC00070BD0120FBE70120F9E70120F7E700BF26
:101BD000001002400000424286B0174B0FCB0DF1BF
:101BE000180C0CE90F0040F20123ADF80430134B40
:101BF0005B6803F00C02082A02D0114806B0704757
:101C0000C3F3834218326A4412F8100C13F4803F75
:101C10000DD00A4B5B68C3F3404318336B4413F891
:101C2000143C074A02FB00F0B0FBF3F0E6E7054B7B
:101C300003FB00F0E2E700BF74A1000800100240BF
:101C400000127A0000093D00002800F0A08070B565
:101C50000D460446524B1B6803F007038B420BD220
:101C60004F4A136823F007030B431360136803F014
:101C700007038B4240F08D80236813F0020F17D0CA
:101C800013F0040F04D0474A536843F4E0635360F1
:101C9000236813F0080F04D0424A536843F460539A
:101CA0005360404A536823F0F003A1680B4353602C
:101CB000236813F0010F31D06368012B20D0022B71
:101CC00025D0384A126812F0020F64D035494A68AC
:101CD00022F0030213434B60FFF7EAFB0646314B49
:101CE0005B6803F00C036268B3EB820F16D0FFF75A
:101CF000DFFB801B41F288339842F0D9032045E096
:101D0000284A126812F4003FE0D101203EE0254A43
:101D1000126812F0007FD9D1012037E0204B1B68F8
:101D200003F00703AB420AD91D4A136823F00703E7
:101D30002B431360136803F00703AB422DD12368D4
:101D400013F0040F06D0174A536823F4E063E168E8
:101D50000B435360236813F0080F07D0114A5368F0
:101D600023F46053216943EAC1035360FFF734FF52
:101D70000C4B5B68C3F303130B4AD35CD8400B4B8B
:101D800018600B4B1868FFF74FFB002070BD012057
:101D900070470120FAE70120F8E70120F6E700BFCD
:101DA000002002400010024078A00008000000203F
:101DB00034010020014B1868704700BF000000206C
:101DC00008B5FFF7F7FF044B5B68C3F30223034A30
:101DD000D35CD84008BD00BF0010024088A00008B6
:101DE00008B5FFF7E7FF044B5B68C3F3C223034A60
:101DF000D35CD84008BD00BF0010024088A0000896
:101E000070B4036A23F001030362036A46688269BF
:101E100022F073020C6844EA020523F002028B6888
:101E200013430D4CA04209D00B4CA0420DD046608C
:101E300085614A684263036270BC704723F00803FF
:101E4000CA68134323F00403EEE726F440764A6998
:101E500032438E691643EAE7002C014030B4036A2E
:101E600023F480730362036A4568C26922F0730237
:101E70000C68224323F400738C6843EA04230F4C5C
:101E8000A04209D00D4CA0420ED04560C2614A6804
:101E9000C263036230BC704723F40063CC6843EA3A
:101EA000042323F48063EDE725F440554C6945EAAB
:101EB00004158C6945EA0415E7E700BF002C0140D2
:101EC00030B4036A23F480530362036A4468C2692E
:101ED00022F4E6420D6842EA052223F400538D689D
:101EE00043EA0533074DA84206D04460C2614A6800
:101EF0000264036230BC704724F480444D6944EAB4
:101F00008514F2E7002C014003681B4A90420AD076
:101F1000B0F1804F07D0A2F59432904203D002F581
:101F20008062904203D123F070034A681343124A3F
:101F300090420AD0B0F1804F07D0A2F5943290427F
:101F400003D002F58062904203D123F44073CA6843
:101F5000134323F080034A69134303608B68C36211
:101F60000B688362044B984202D00123436170479F
:101F70000B690363F9E700BF002C014040B310B5C3
:101F8000044690F83D30F3B1022384F83D302146F9
:101F900051F8040BFFF7B8FF012384F8463084F8AA
:101FA0003E3084F83F3084F8403084F8413084F883
:101FB000423084F8433084F8443084F8453084F863
:101FC0003D30002010BD80F83C30FFF777F8DBE7AC
:101FD0000120704730B4036A23F010030362036AE0
:101FE0004468826922F4E6420D6842EA052223F041
:101FF00020038D6843EA05130E4DA84209D00D4D0C
:10200000A8420ED0446082614A688263036230BC99
:10201000704723F08003CD6843EA051323F04003A3
:10202000EDE724F440644D6944EA85048D6944EA8F
:102030008504E7E7002C014038B590F83C30012BCF
:1020400060D004460D46012380F83C300C2A1AD893
:10205000DFE802F0071919191D1919193119191991
:1020600044000068FFF7CCFE2268936943F0080340
:1020700093612268936923F0040393612268936952
:1020800029690B439361002084F83C0038BD006847
:10209000FFF7A0FF2268936943F40063936122680D
:1020A000936923F48063936122689369296943EA01
:1020B00001239361E7E70068FFF7D0FE2268D36948
:1020C00043F00803D3612268D36923F00403D3618A
:1020D0002268D36929690B43D361D4E70068FFF70D
:1020E000EFFE2268D36943F40063D3612268D369A9
:1020F00023F48063D3612268D369296943EA012309
:10210000D361C0E70220C1E701F01F01012303FAF8
:1021100001FC036A23EA0C030362036A02FA01F179
:102120000B4303627047000010B50446084651BBDC
:1021300094F83E30DBB2013B18BF0123002B5BD18A
:10214000002839D1022384F83E300122014620685C
:10215000FFF7DAFF23682A4A93423DD02368284AD2
:1021600093423ED0B3F1804F3BD0A2F594329342DC
:1021700037D002F58062934233D01A6842F00102F0
:102180001A60002039E0042908D008290DD094F8FD
:102190004130DBB2013B18BF0123CFE794F83F3059
:1021A000DBB2013B18BF0123C8E794F84030DBB233
:1021B000013B18BF0123C1E7042805D0082807D038
:1021C000022384F84130C0E7022384F83F30BCE7A3
:1021D000022384F84030B8E75A6C42F400425A6453
:1021E000BCE79A6802F00702062A07D01A6842F094
:1021F00001021A60002000E0012010BD0020FCE771
:10220000002C014090F83C30012B2CD010B401235D
:1022100080F83C30022380F83D3003685A689C689F
:1022200022F0700C0A6842EA0C025A6003680F4AF6
:1022300093420AD0B3F1804F07D0A2F59432934273
:1022400003D002F58062934204D124F080044A68EE
:1022500014439C60012380F83D30002380F83C301B
:10226000184610BC70470220704700BF002C014088
:1022700010B504460268136923F44053C1680B4348
:10228000136183680269134342691A430168CB688A
:1022900023F4B05323F00C031343CB60026853695B
:1022A00023F4407381690B4353610268134B9A42D4
:1022B00020D0FFF785FD024602EB820202EB82028C
:1022C00063689B00B2FBF3F20D48A0FB02314909A1
:1022D000642303FB11231B013233A0FB03235B099F
:1022E00003F0F00202EB011203F00F032168134424
:1022F0008B6010BDFFF774FD0246DDE7003801403A
:102300001F85EB5158B310B5044690F83D300BB320
:10231000242384F83D302268D36823F40053D3602B
:102320002046FFF7A5FF2268136923F49043136149
:102330002268536923F02A0353612268D36843F467
:102340000053D36000202064202384F83D3084F8BB
:102350003E3010BD80F83C30FEF7EEFED8E701209D
:1023600070470000EFF3058393B9EFF3108393B93F
:102370000C4B1868022804D080B90A4B01221A605D
:102380007047EFF31183002BF6D06FF00500704714
:102390006FF0050070476FF0050070474FF0FF3099
:1023A000704700BF480E002008B5EFF30583B3B9AE
:1023B000EFF31083B3B90E4B1B68022B08D0012B2F
:1023C00013D10B4B02221A6001F0D2F8002008BD95
:1023D000EFF31182002AF2D06FF00500F7E76FF0FB
:1023E0000500F4E76FF00500F1E74FF0FF30EEE78E
:1023F000480E0020F0B587B000240494EFF3058464
:10240000002C43D1EFF31083002B3FD1334B1B68DB
:10241000022B16D0002839D000238DF8173062B374
:10242000156895B1936903B918235C1E372C51D8F0
:10243000546814F0010F4FD156694EB14FEA960C13
:1024400008E0EFF311830BBBE4E70DF11705E9E7B3
:102450004FF0800C94682CB1D7685B2F02D91769B4
:1024600007B1B6B914B14FF0FF340CE0D46894B999
:1024700014699CB14FF0FF3405E0002418234FF09D
:10248000800C0DF11705012C0AD0ACB1049807B0EF
:10249000F0BD0124F7E74FF0FF34F4E70024F2E742
:1024A000146992680292019400930B466246294691
:1024B00000F0F0FF0490E9E704AA019200930B46B4
:1024C0001FFA8CF2294601F01FF80128DED0002304
:1024D0000493DBE70020DAE70020D8E7480E00206D
:1024E00008B5EFF30583A3B9EFF31083A3B90C4B41
:1024F0001B68022B02D040B9002008BDEFF3118306
:10250000002BF8D06FF00500F7E701F095F90020F7
:10251000F3E76FF00500F0E76FF00500EDE700BFAF
:10252000480E0020034B0360034B0B6080231360B5
:10253000704700BFEC0D0020EC0B0020034B036044
:10254000034B0B604FF48073136070474C120020F4
:102550004C0E002000F1080343604FF0FF32826010
:10256000C360036100230360704700230361704769
:1025700043684B609A688A6051609960086103689B
:1025800001330360704730B40D68B5F1FF3F11D0DF
:1025900000F108031C465B681A68AA42FAD963680E
:1025A0004B6099608C60616008610368013303606F
:1025B00030BC70470469F2E70369416882688A6049
:1025C000416851605A68824206D0002202611A684E
:1025D000013A1A601868704782685A60F5E700008F
:1025E00082B0002301930D4B1B68B3F1FF3F08D06D
:1025F0004FF0500383F31188BFF36F8FBFF34F8FFA
:10260000FEE74FF0500383F31188BFF36F8FBFF3E2
:102610004F8F019B002BFCD002B070473801002087
:1026200006480068006880F3088862B661B6BFF3A8
:102630004F8FBFF36F8F00DF00BF000008ED00E099
:102640004FF0807340F8043C21F0010140F8081C71
:10265000034B40F80C3C40F8202C4038704700BF3A
:10266000E12500080000000000000000000000005C
:10267000074B19680868B0E8F00F80F30988BFF3CA
:102680006F8F4FF0000080F311884EF00D0E7047F1
:10269000081F00204FF0500383F31188BFF36F8FA2
:1026A000BFF34F8F0B4A136801331360012B00D027
:1026B00070474FF0E023D3F8043D13F0FF0FF7D03D
:1026C0004FF0500383F31188BFF36F8FBFF34F8F29
:1026D000FEE700BF38010020094B1B6843B94FF0EB
:1026E000500383F31188BFF36F8FBFF34F8FFEE763
:1026F000013B034A13600BB983F31188704700BF95
:102700003801002000000000000000000000000070
:10271000EFF30980BFF36F8F0D4B1A6820E9F00FBC
:1027200010602DE908404FF0500080F3118801F04F
:10273000A9F84FF0000080F31188BDE8084019683F
:102740000868B0E8F00F80F30988BFF36F8F704717
:10275000081F002008B54FF0500383F31188BFF322
:102760006F8FBFF34F8F00F05FFF28B14FF0E02372
:102770004FF08052C3F8042D002383F3118808BD65
:102780004FF0E022002313619361054B1B6805495C
:10279000A1FB03139B09013B53610723136170479E
:1027A00000000020D34D621010B582B02A4B1A7879
:1027B000D2B20192FF221A701B78DBB28DF803307F
:1027C0009DF8033003F05003244A1370244B072272
:1027D0001A6009E0224A1368013B13609DF8033038
:1027E0005B00DBB28DF803309DF8033013F0800FEF
:1027F000F0D11B4B1B68032B08D04FF0500383F321
:102800001188BFF36F8FBFF34F8FFEE71B02144A8F
:10281000136003F4E0631360019BDBB20E4A137094
:102820004FF0E023D3F8202D42F47002C3F8202D9E
:10283000D3F8202D42F07042C3F8202DFFF7A0FFFF
:102840000024084B1C60FFF7EBFE01F01BF8FFF7BC
:10285000C7FE204602B010BD00E400E0A812002030
:10286000AC12002038010020EFF305830F2B0FD9A5
:10287000114A9B5CDBB2114A12789A4208D94FF098
:10288000500383F31188BFF36F8FBFF34F8FFEE7C1
:102890004FF0E023D3F80C3D03F4E063084A1268DC
:1028A000934208D94FF0500383F31188BFF36F8F21
:1028B000BFF34F8FFEE77047F0E300E0A81200205F
:1028C000AC120020124A12F0070F1ED0D11D21F0C9
:1028D0000701C1F5406313440A460E480260002117
:1028E00041601344083B23F007030B480360596021
:1028F0001960991A51601360084B1960084B1960F0
:10290000084B4FF000421A6070474FF44063E4E711
:10291000B4120020C01E0020B0120020BC1E0020F7
:10292000B81E0020B41E0020154B1A461B688342B7
:10293000FBD3516802EB010C844509D0416800EBE0
:10294000010C634509D00360904218D010607047B5
:102950004068014451601046F0E710B4094C246807
:10296000A3420AD05B681944416013681B68036086
:10297000904200D0106010BC70470460F8E77047C8
:10298000C01E0020B012002070B5054600F03EFECB
:10299000344B1B68A3B1344B1B681D424AD135B17F
:1029A000083515F0070F02D025F007050835002D72
:1029B00042D02E4B1B68AB424DD32D4A146804E025
:1029C000FFF780FFE7E722461C466368AB4202D26E
:1029D0002368002BF7D1234B1B68A3423DD0166818
:1029E00008362368136063685B1B102B10D96019CD
:1029F00010F0070F08D04FF0500383F31188BFF396
:102A00006F8FBFF34F8FFEE743606560FFF78CFF6A
:102A1000626816490B689B1A0B60164909688B425D
:102A200001D214490B60104B1B68134363600023F1
:102A3000236002E0002600E0002600F081FE16F090
:102A4000070F0CD04FF0500383F31188BFF36F8F43
:102A5000BFF34F8FFEE70026EFE70026EDE7304695
:102A600070BD00BFB0120020B41E0020B81E0020B0
:102A7000C01E0020BC1E002080B338B50446A0F163
:102A8000080550F8043C164A1268134208D14FF06A
:102A9000500383F31188BFF36F8FBFF34F8FFEE7AF
:102AA00050F8081C41B14FF0500383F31188BFF375
:102AB0006F8FBFF34F8FFEE723EA020340F8043C19
:102AC00000F0A4FD54F8041C064A13680B4413607C
:102AD0002846FFF729FF00F033FE38BD704700BFDE
:102AE000B41E0020B81E002010B50446FFF7D2FD2A
:102AF000A26BE36B9A4204D00024FFF7EDFD204661
:102B000010BD0124F9E710B50446FFF7C3FDA36B20
:102B100023B90124FFF7E0FD204610BD0024F9E7AA
:102B200070B504461546866B026C5AB903681BB132
:102B300000200136A66370BD406800F0CBFF002383
:102B40006360F6E76DB98068FDF702FB226CA3684D
:102B50001344A3606268934219D32368A360284694
:102B6000E7E7C068FDF7F4FA226C5142E3689B1A6C
:102B7000E3602268934202D263680B44E360022D53
:102B800001D00020D5E726B1013E0020D1E728463C
:102B9000CFE70020CDE708B50346026C62B10846D6
:102BA000D9681144D960D3F804C0614501D31968CC
:102BB000D960D968FDF7CCFA08BD38B50546FFF7EE
:102BC00069FD95F8454064B201E0013C64B2002C17
:102BD0000ADD6B6A43B105F1240000F0D1FE002844
:102BE000F3D000F061FFF0E7FF2385F84530FFF7F1
:102BF00073FDFFF74FFD95F8444064B201E0013CDE
:102C000064B2002C0ADD2B6943B105F1100000F01D
:102C1000B7FE0028F3D000F047FFF0E7FF2385F868
:102C20004430FFF759FD38BD38B5E0B10D460446D4
:102C3000FFF730FD2368E26B216C01FB023060601E
:102C40000020A063A360013A02FB0133E360FF238D
:102C500084F8443084F84530FDB9236963B9FFF73F
:102C60003BFD012038BD4FF0500383F31188BFF3C3
:102C70006F8FBFF34F8FFEE704F1100000F080FE6E
:102C80000028ECD04FF0E0234FF08052C3F8042D21
:102C9000BFF34F8FBFF36F8FE1E704F11000FFF731
:102CA00059FC04F12400FFF755FCD8E738B51D4660
:102CB000049C0B4649B92460E0632364012120464B
:102CC000FFF7B2FF84F84C5038BD2260F4E740B9FA
:102CD0004FF0500383F31188BFF36F8FBFF34F8F13
:102CE000FEE710B584B01C46844653B192B189B951
:102CF0004FF0500383F31188BFF36F8FBFF34F8FF3
:102D0000FEE74FF0500383F31188BFF36F8FBFF3DB
:102D10004F8FFEE76AB150230393039B502B13D0D0
:102D20004FF0500383F31188BFF36F8FBFF34F8FC2
:102D3000FEE70029EFD04FF0500383F31188BFF373
:102D40006F8FBFF34F8FFEE7012384F84630009466
:102D50009DF818306046FFF7A9FF204604B010BD6B
:102D6000F0B585B0019288B10F461D460446B1B159
:102D7000022D20D1E36B012B1DD04FF0500383F3C4
:102D80001188BFF36F8FBFF34F8FFEE74FF05003F3
:102D900083F31188BFF36F8FBFF34F8FFEE7036C90
:102DA000002BE5D04FF0500383F31188BFF36F8FF2
:102DB000BFF34F8FFEE700F07DFE064658B9019B3A
:102DC000002B48D04FF0500383F31188BFF36F8F6F
:102DD000BFF34F8FFEE700263DE02A4639462046E6
:102DE000FFF79EFE636A7BB948B14FF0E0234FF0D6
:102DF0008052C3F8042DBFF34F8FBFF36F8FFFF7DF
:102E00006BFC012005B0F0BD04F1240000F0B8FD1A
:102E10000028F4D04FF0E0234FF08052C3F8042D87
:102E2000BFF34F8FBFF36F8FE9E7FFF755FC00202B
:102E3000E8E702A800F0EAFD012619E0002384F883
:102E4000443021E0002384F8453023E02046FFF79A
:102E5000B4FE00F075FCFFF71DFCA26BE36B9A4219
:102E6000BBD3022DB9D0019B002BDED0002EE0D0C9
:102E7000FFF732FC00F0CAFBFFF70CFC94F844208B
:102E800052B2B2F1FF3FD9D094F8452052B2B2F11C
:102E9000FF3FD7D0FFF720FC01A902A800F0C2FD38
:102EA000D8B92046FFF720FE0028CFD0019904F1C1
:102EB000100000F031FD2046FFF77FFE00F040FCDF
:102EC0000028C8D14FF0E0234FF08052C3F8042D02
:102ED000BFF34F8FBFF36F8FBDE72046FFF76DFE47
:102EE00000F02EFC00208DE72DE9F84390B10F464D
:102EF00016461C460546B1B1022C20D1EB6B012BC6
:102F00001DD04FF0500383F31188BFF36F8FBFF3D1
:102F10004F8FFEE74FF0500383F31188BFF36F8F9D
:102F2000BFF34F8FFEE7036C002BE5D04FF050034B
:102F300083F31188BFF36F8FBFF34F8FFEE7FFF767
:102F400093FCEFF311894FF0500383F31188BFF323
:102F50006F8FBFF34F8FAA6BEB6B9A4206D3022C95
:102F600004D0002089F31188BDE8F88395F84580E6
:102F70004FFA88F8224639462846FFF7D1FDB8F1C6
:102F8000FF3F06D008F101035BB285F84530012010
:102F9000E8E76B6A0BB90120E4E705F1240000F0D3
:102FA000EFFC18B126B101203060DBE70120D9E742
:102FB0000120D7E7F0B585B0019290B10F460446E5
:102FC000C1B100F077FD064600BB019B002B5ED02F
:102FD0004FF0500383F31188BFF36F8FBFF34F8F10
:102FE000FEE74FF0500383F31188BFF36F8FBFF3F9
:102FF0004F8FFEE7036C002BE3D04FF0500383F3B9
:103000001188BFF36F8FBFF34F8FFEE700263EE0BE
:1030100039462046FFF7BFFD013DA563236923B96B
:10302000FFF75AFB012005B0F0BD04F1100000F0DD
:10303000A7FC0028F4D04FF0E0234FF08052C3F8F3
:10304000042DBFF34F8FBFF36F8FE9E7FFF744FB0A
:103050000020E8E702A800F0D9FC012621E00023C7
:1030600084F8443029E0002384F845302BE02046E2
:10307000FFF7A3FD00F064FB09E02046FFF79DFD8C
:1030800000F05EFB2046FFF73EFD00283FD1FFF732
:1030900001FBA56B002DBBD1019B002BD6D0002ED0
:1030A000D8D0FFF719FB00F0B1FAFFF7F3FA94F864
:1030B00044305BB2B3F1FF3FD1D094F845305BB2FE
:1030C000B3F1FF3FCFD0FFF707FB01A902A800F043
:1030D000A9FC0028D1D12046FFF715FD0028C6D055
:1030E000019904F1240000F017FC2046FFF765FD6C
:1030F00000F026FB0028CAD14FF0E0234FF08052A9
:10310000C3F8042DBFF34F8FBFF36F8FBFE70020CD
:1031100089E700000023072B0CD8074A52F8332018
:103120000AB10133F7E7044A42F8331002EBC30354
:1031300058607047704700BFC81E002070B5044635
:103140000D461646FFF7A6FA94F844305BB2B3F189
:10315000FF3F0DD094F845305BB2B3F1FF3F0BD089
:10316000FFF7BAFAA36B5BB12046FFF726FD70BDEF
:10317000002384F84430EDE7002384F84530EFE77E
:103180003246294604F1240000F0DEFBECE70000A3
:10319000084B1B681B6823B9074B4FF0FF321A60BE
:1031A0007047044B1B68DB68DB685A68024B1A6087
:1031B000704700BF0C1F0020B82300202DE9F04706
:1031C00080460D4617469946089EDDF824A00A9CC5
:1031D0009200A521206B00F02DFF236B07F18042A8
:1031E000013A03EB820727F007074FF0000CBCF110
:1031F0000F0F0BD815F80C2004EB0C0383F83420C8
:1032000015F80C3013B10CF1010CF0E7002384F831
:103210004330372E00D93726E662E664002525655F
:10322000201DFFF7A2F904F11800FFF79EF92461B1
:10323000C6F13806A6616462656584F858504A464E
:1032400041463846FFF7FCF92060BAF1000F01D083
:10325000CAF80040BDE8F08738B5002407E004EB69
:10326000840293000E481844FFF774F90134372C98
:10327000F5D90C4D2846FFF76DF90B4C2046FFF7AA
:1032800069F90A48FFF766F90948FFF763F9094841
:10329000FFF760F9084B1D60084B1C6038BD00BF8C
:1032A000141F00208C230020A0230020C023002016
:1032B000EC230020D82300200C1F0020101F00202A
:1032C00010B50446FFF7E6F9224A1368013313608C
:1032D000214B1B685BB1214B1B686BB91E4B1B68F4
:1032E000DA6AE36A9A4207D81B4B1C6004E01A4B67
:1032F0001C601368012B29D0194A1368013313602D
:103300006364E06A174B1B68984201D9154B18603B
:1033100000EB8000211D144B03EB8000FFF728F920
:10332000FFF7DAF90D4B1B687BB10B4B1B68DA6AB0
:10333000E36A9A4209D24FF0E0234FF08052C3F87B
:10334000042DBFF34F8FBFF36F8F10BDFFF784FFC6
:10335000D2E700BF74230020081F0020D4230020E0
:103360008423002088230020141F002010B5044669
:1033700090F8593063B1012B11D0022B0ED04FF0D1
:10338000500383F31188BFF36F8FBFF34F8FFEE7B6
:10339000006BFFF771FB2046FFF76EFB10BDFFF7D8
:1033A0006BFBFBE70F4B1B68D3B110B5FFF772F94E
:1033B0000D4BDB68DC68201DFFF7FEF80B4A136835
:1033C000013B1360074A1368013B1360FFF784F960
:1033D0002046FFF7CBFF034B1B68002BE6D110BD47
:1033E000704700BF78230020EC23002074230020C6
:1033F00008B5FFF7D7FF074B1B68012BF9D94FF032
:10340000E0234FF08052C3F8042DBFF34F8FBFF37A
:103410006F8FEEE7141F002070B504460D46174B62
:103420001E68174B18680430FFF7C6F8B4F1FF3F69
:103430000DD03444124B1B685C60A64210D9114B6E
:1034400018680F4B19680431FFF79DF870BD002D07
:10345000EFD00B4B196804310B48FFF789F8F5E7FB
:103460000A4B1868064B19680431FFF78CF8084BB3
:103470001B68A342EAD9064B1C60E7E70024002042
:10348000081F0020101F0020D82300200C1F002040
:10349000B823002030B587B00B9C7CB10C9DB5B132
:1034A0005C250495049D5C2D1AD04FF0500383F3E6
:1034B0001188BFF36F8FBFF34F8FFEE74FF05003BC
:1034C00083F31188BFF36F8FBFF34F8FFEE74FF089
:1034D000500383F31188BFF36F8FBFF34F8FFEE765
:1034E0000C9D2C63022485F8594000240394029516
:1034F00005AC01940A9C0094FFF760FE0C98FFF75E
:10350000DFFE059807B030BD2DE9F04385B00746D2
:10351000884614461E469000FFF736FA00B38146EF
:103520005C20FFF731FA0546B0B1C0F83090E5B144
:10353000002385F85930039302950D9B01930C9B52
:1035400000933346224641463846FFF737FE284669
:10355000FFF7B6FE012005E04846FFF78DFAE6E7E3
:103560004FF0FF3005B0BDE8F0834FF0FF30F9E7D2
:1035700010B588B000240594069407AA06A905A8EA
:10358000FEF7D0FF059B0293069B01930094234610
:10359000079A18491848FFF77DFF184B186040B18B
:1035A00000F04CFB012806D0B0F1FF3F18D008B066
:1035B00010BD0020F6E74FF0500383F31188BFF3EE
:1035C0006F8FBFF34F8F0E4B4FF0FF321A600D4BD2
:1035D00001221A600C4B00221A60FFF7E5F8E6E7BB
:1035E0004FF0500383F31188BFF36F8FBFF34F8FFA
:1035F000FEE700BF88A10008F1330008B4230020D3
:10360000B8230020D423002000240020024A13689D
:1036100001331360704700BF80230020014B1868FE
:10362000704700BF00240020F8B53A4B1B68002B00
:1036300064D1394B1D6801351D60C5B9374B1B6816
:103640001B6843B14FF0500383F31188BFF36F8FB2
:10365000BFF34F8FFEE7314A1168314B1868106095
:103660001960304A136801331360FFF791FD2E4B48
:103670001B68AB4238D900272C4B1B68DB6A03EB75
:1036800083039A002A4B9B58012B3CD901273AE02F
:103690000127224B1B681B6843B3204B1B68DB6868
:1036A000DC6863689D4226D3261D3046FEF784FF02
:1036B000A36A1BB104F11800FEF77EFFE36A1D4AFE
:1036C0001268934201D91B4A136003EB83039A00EB
:1036D000314617481044FEF74BFFE26A134B1B6854
:1036E000DB6A9A42D4D2D4E70027D2E70E4B4FF0E0
:1036F000FF321A60C0E70C4A1360BDE70E4A136838
:103700000133136000270D4B1B6803B101273846B6
:10371000F8BD00BF80230020002400200C1F0020E3
:10372000101F0020BC230020B8230020081F002009
:10373000141F0020882300207C2300200424002064
:1037400038B5354B1B6843B94FF0500383F31188EC
:10375000BFF36F8FBFF34F8FFEE7FEF79BFF2E4B3C
:103760001A68013A1A601B68002B4FD12B4B1B685B
:103770000BB900244BE00024294B1B681BB3284BDA
:10378000DB68DC6804F11800FEF716FF251D2846EB
:10379000FEF712FFE06A234B1B68984201D9214BC8
:1037A000186000EB800029461F4B03EB8000FEF7FA
:1037B000DFFEE26A1D4B1B68DB6A9A42DCD31C4BBE
:1037C00001221A60D8E70CB1FFF7E2FC194B1C6824
:1037D00084B9174B1C68D4B14FF0E0234FF08052EE
:1037E000C3F8042DBFF34F8FBFF36F8F01240EE09A
:1037F000013C07D0FFF718FF0028F9D00C4B01223D
:103800001A60F5E70B4B00221A60E2E70024FEF78E
:1038100063FF204638BD00BF8023002074230020B2
:10382000C023002088230020141F0020081F002030
:10383000042400207C23002010B5A8B10446104BBE
:103840001B6843B14FF0500383F31188BFF36F8FB0
:10385000BFF34F8FFEE7FFF7D9FE00212046FFF7A9
:10386000DBFDFFF76DFF48B94FF0E0234FF08052CA
:10387000C3F8042DBFF34F8FBFF36F8F10BD00BF90
:10388000802300201F4B1B681BB11F4B01221A60B5
:1038900070471D4B00221A601C4B1B6803EB830111
:1038A0008A001B498A585AB90BB1013BF6E74FF021
:1038B000500383F31188BFF36F8FBFF34F8FFEE781
:1038C00003EB830082000A4450684068506003EBB9
:1038D000830C4FEA8C020832114488420BD003EB70
:1038E000830291000A4A0A445268D168094A116069
:1038F000064A13607047406862469100044A0A44D1
:103900005060ECE78023002004240020882300205E
:10391000141F0020081F002058B110B50C46094A9A
:1039200011681831FEF72FFE01212046FFF774FDC4
:1039300010BD4FF0500383F31188BFF36F8FBFF3B7
:103940004F8FFEE7081F002038B570B10D461446B2
:103950000A4A11681831FEF70BFE0CB14FF0FF3523
:1039600021462846FFF758FD38BD4FF0500383F33A
:103970001188BFF36F8FBFF34F8FFEE7081F002042
:1039800038B5C368DC6824B304F118052846FEF78F
:1039900013FE184B1B682BBB251D2846FEF70CFE9B
:1039A000E06A154B1B68984201D9134B186000EB75
:1039B00080002946114B03EB8000FEF7D9FDE26A37
:1039C0000F4B1B68DB6A9A4211D901200D4B18601E
:1039D00038BD4FF0500383F31188BFF36F8FBFF3EF
:1039E0004F8FFEE729460848FEF7C2FDE7E70020B3
:1039F000EEE700BF8023002088230020141F002052
:103A0000081F002004240020C0230020034B1B6853
:103A10000360034B1B684360704700BFBC2300205A
:103A200000240020D8B170B50C46054601B3FEF75E
:103A300031FE1B4B19686B68C81A2268B2F1FF3F50
:103A400027D0184E3668D5F800C0B44501D08B4257
:103A500024D9824215D80023236001241AE04FF0B4
:103A6000500383F31188BFF36F8FBFF34F8FFEE7CF
:103A70004FF0500383F31188BFF36F8FBFF34F8F65
:103A8000FEE75B1A134423602846FFF7BFFF0024BC
:103A900000E00024FEF720FE204670BD0124F9E777
:103AA00000240020BC230020014B01221A60704733
:103AB00004240020054B1B6833B1054B1B680BB178
:103AC000002070470220704701207047D423002057
:103AD0008023002000283BD038B504461E4B1B68CD
:103AE000834208D04FF0500383F31188BFF36F8FE8
:103AF000BFF34F8FFEE7036D43B94FF0500383F3DD
:103B00001188BFF36F8FBFF34F8FFEE7013B036553
:103B1000C16AC26C91421DD00BB1002038BD051D99
:103B20002846FEF749FDE06CE062C0F13803A3616E
:103B30000A4B1B68984201D9084B186000EB8000C3
:103B40002946074B03EB8000FEF712FD0120E5E755
:103B5000002070470020E1E7081F00208823002094
:103B6000141F0020064B1A681368B3FA83F35B092D
:103B7000036013B9D368186870470020704700BF0E
:103B80000824002008B54160006191420CD8D21A87
:103B900083699A4201D3012008BD011D094B1868B1
:103BA000FEF7F1FC0020F7E79A4201D2994206D2D3
:103BB000011D054B1868FEF7E6FC0020ECE701202C
:103BC000EAE700BF0C2400200824002030B583B0B1
:103BD000FEF760FD114B1B681BB1FEF77DFD03B0C6
:103BE00030BD0F4D2846FEF7B5FC0E4C2046FEF7C3
:103BF000B1FC0D4B1D600D4B1C60002300930C4B62
:103C00000C4A10210A20FFF762F8044B18600028C4
:103C1000E3D00949FFF77EFADFE700BF2C2500203B
:103C2000B0240020C4240020082400200C240020FC
:103C3000DC2400201024002090A1000810B588B0DA
:103C4000FFF7C4FF124B1B68CBB100240594069408
:103C500007AA06A905A8FEF771FC059B0293069B1F
:103C60000193022300932346079A0A490A48FFF763
:103C700011FC0A4B186010B1012008B010BD4FF0C4
:103C8000500383F31188BFF36F8FBFF34F8FFEE7AD
:103C90002C25002098A100087D3F00083025002039
:103CA000B8B19C4603461848006858B300B585B0C3
:103CB00000910192029305291CDCFFF7FBFE02280C
:103CC00010D000231A4669460F480068FFF748F8ED
:103CD00015E04FF0500383F31188BFF36F8FBFF3EC
:103CE0004F8FFEE70023069A694607480068FFF7F2
:103CF00037F804E0002362466946FFF7F5F805B09F
:103D00005DF804FB002070472C25002070B582B0C0
:103D10001A4B1B681A6852B3DB681E68DC68251DE5
:103D20002846FEF749FC636A20469847E369012B61
:103D3000EED1A36933449E4207D2636024612946D1
:103D40000E4B1868FEF71FFCE2E7002100910B46BE
:103D500032462046FFF7A4FF0028D9D14FF0500388
:103D600083F31188BFF36F8FBFF34F8FFEE7044AD1
:103D7000106802490860136002B070BD082400207A
:103D80000C24002038B50546FFF748FC0446074BD5
:103D90001B68834205D800232B60044B1C6020461F
:103DA00038BDFFF7B3FF01232B60F6E7D8240020CE
:103DB00070B582B006460D4614490968C968CC68DA
:103DC000201DFEF7F9FBE169012904D0636A204652
:103DD000984702B070BDA16933462A463144204657
:103DE000FFF7D0FE0028F1D0002100910B463246AB
:103DF0002046FFF755FF0028E8D14FF0500383F32A
:103E00001188BFF36F8FBFF34F8FFEE708240020A8
:103E100070B582B006460C46FFF7F8FB01A8FFF725
:103E2000B1FF019B2BBB05460CB9B0421AD22CB195
:103E3000124B1B681C68B4FA84F464092246711B97
:103E40000F4B1868FFF77AF9FFF77AFC98B94FF033
:103E5000E0234FF08052C3F8042DBFF34F8FBFF320
:103E60006F8F08E0FFF76CFC29463046FFF7A0FF94
:103E700001E0FFF765FC02B070BD00BF0C2400201C
:103E80002C25002010B588B002E0049B002B0FDA2F
:103E9000002204A9384B1868FFF78CF8002869D075
:103EA000049B002BF1DA07990698059B9847ECE7ED
:103EB000069C636913B1201DFEF77EFB03A8FFF784
:103EC00061FF049B092BE3D801A252F823F000BF45
:103ED000F93E0008F93E0008F93E0008913E00084E
:103EE0003F3F0008653F0008F93E0008F93E000822
:103EF000913E00083F3F0008059BA1690246194416
:103F00002046FFF73FFE0028C2D0636A204698474C
:103F1000E369012BBCD1A269002100910B460598F1
:103F200002442046FFF7BCFE0028B1D14FF05003F9
:103F300083F31188BFF36F8FBFF34F8FFEE70599AF
:103F4000A16131B10346024601442046FFF71AFE43
:103F50009EE74FF0500383F31188BFF36F8FBFF3D9
:103F60004F8FFEE794F82C30002B91D12046FEF7BE
:103F700083FD8DE708B010BD2C25002000B583B06F
:103F800001A8FFF7EFFD0199FFF742FFFFF77AFF66
:103F9000F6E700000C480D490D4A002302E0D45812
:103FA000C4500433C4188C42F9D30A4A0A4C002383
:103FB00001E013600432A242FBD3FDF763F900F085
:103FC00015F8FDF72FF8704700000020E80A0020E0
:103FD000B4A50008E80A00207C250020FEE70000C8
:103FE000014B1868704700BF3C01002070B50D4EB2
:103FF0000D4D761BB61006D0002455F8043B013455
:104000009847A642F9D1094E094D06F00FF8761BE4
:10401000B61006D0002455F8043B01349847A64258
:10402000F9D170BDA8A50008A8A50008B0A5000892
:10403000A8A50008830730B548D0541E002A3FD0F9
:104040000346CAB201E0013C3AD303F8012B9D07B5
:10405000F9D1032C2DD9CDB245EA05250F2C45EA1F
:10406000054536D9A4F1100222F00F0C03F1200E01
:10407000E6444FEA121C03F1100242E9045542E9FA
:10408000025510327245F8D10CF1010214F00C0FF8
:1040900003EB021204F00F0C13D0ACF1040323F075
:1040A00003030433134442F8045B9342FBD10CF046
:1040B00003042CB1CAB21C4403F8012B9C42FBD16F
:1040C00030BD64461346002CF4D1F9E7034614468C
:1040D000BFE71A46A446E0E70FB400B5074A83B02D
:1040E00004AB106853F8042B8168019300F008F8C2
:1040F00003B05DF804EB04B0704700BF3C01002042
:104100002DE9F04FD5B01C46914607910546099020
:1041100003F03EF902680E941046179204F0E8F896
:1041200016901DB1AB6B002B00F01D82079A536EE9
:10413000DD0740F12D81B2F90C2091B28F0409D432
:10414000079B42F400529A8191B21A465B6E23F4A7
:10415000005353660E0740F1C080079B1B69002B7C
:1041600000F0BB8001F01A030A2B00F0C480002489
:104170002BAB224698464D46CDE92944289312940C
:1041800000230024CDE914342B78CDE91922CDE9A0
:104190001B2218920B92002B00F08F81AA4604E09C
:1041A0001AF8013F002B00F0BB80252BF8D1BAEBA9
:1041B000050640F0B9809AF80030002B00F07D81B0
:1041C00000234FF0FF324FF02B0920241F469AF8AE
:1041D000016008920AF1010A8DF883300A930AF10E
:1041E000010AA6F120035A2B00F2E180DFE813F068
:1041F0000503DF00DF000003DF00DF00DF00DE0279
:10420000DF00DF006A006E02DF0055027802DF0087
:1042100073025B005B005B005B005B005B005B00AC
:104220005B005B00DF00DF00DF00DF00DF00DF009E
:10423000DF006C01DF00EA01C4016C016C016C015C
:10424000DF00DF00DF00DF00D002DF00DF0023023D
:10425000DF00DF00DF00F801DF009202DF00DF0097
:104260008707DF00DF00DF00DF00DF00DF00DF00A7
:10427000DF006C01DF00EA01C6016C016C016C011A
:10428000B602C601BF01DF00C302DF005A022502E9
:10429000A402BF01DF00F80172008407DF00DF0025
:1042A0006507DF0072000022A6F130031AF8016BE7
:1042B00002EB820203EB4202A6F13003092BF5D98F
:1042C0000A928EE70E9B53F8042B002A0A920E9353
:1042D000C0F2E0819AF8006081E7079D09982946BD
:1042E00001F0FCFC002841F04D83A98901F01A037C
:1042F0000A2B7FF43CAF079AB2F90E30002BFFF681
:1043000036AF536ED80702D4890541F14881234660
:104310004A460799099855B0BDE8F04F01F09CBC9A
:10432000BAEB050600F0C9802A9BC8E90056334461
:104330002A93299B0133072B299305DC08F10808F0
:104340000B9B33440B9336E70799099828AA04F08E
:104350006DF880B90DF1AC08F2E70799099828AA21
:1043600004F064F8002800F099800D9B1BB11946F9
:10437000099802F0E9FE079A536ED90740F1E880E8
:1043800093895B0601F10A830B9855B0BDE8F08F65
:10439000079BB3F90C20900591B23FF5CFAE1D46B7
:1043A000986D02F0FDFFB5F90C2091B2C6E6002E23
:1043B00000F08380012300228DF8EC6006933BAD72
:1043C0008DF883200C930D9208920F921392109205
:1043D00017F0020302D006990231069117F0840B00
:1043E00007D10A990698A1EB0009B9F1000F00F373
:1043F00090832A9C82B10122C8F80420299A0134B2
:1044000001320DF18301072A2A942992C8F800107D
:1044100000F3D88308F108087BB10223C8F8043000
:10442000299B0234013321AA072B2A942993C8F827
:10443000002000F3D58308F10808BBF1800F00F0DD
:104440008882089B0C9AA3EB020BBBF1000F00F3D0
:10445000CB82FB0500F11F820C9BC8F800501C4466
:10446000C8F80430299B2A940133072B299300F3C1
:10447000448308F10808780705D50A9B069A9D1A17
:10448000002D00F3B983DDE90A2306998A42ACBF07
:104490009B185B180B93002C7FF45FAF00232993CC
:1044A0000D9B1BB10D99099802F04EFE55460DF17A
:1044B000AC082B78002B7FF471AE2A9B002B41F0C7
:1044C00010820023299356E70E9B073323F007023F
:1044D000F2E80234CDE91434DDE9143424F0004468
:1044E000994618460E9221464FF0FF32AB4BFCF72F
:1044F000FBFA002840F01885484621464FF0FF326D
:10450000A64BFCF7D3FA002840F00E85DDE9140134
:1045100000220023FCF7C0FA002840F065879DF8D0
:104520008320002103209E4D9E4B27F080070D9194
:104530000690472EC8BF1D4608910C900F9113910D
:104540001091002A3FF444AF069B013306933FE7E6
:10455000079B9B899A053FF514AF079CA06D02F05D
:1045600021FFA3890DE7099802F0F6FCDEE59AF831
:10457000006047F0200732E647F01007BA060E9BAE
:1045800040F16E84073323F007031A465B6852F844
:10459000084B99460E92002BC0F26F84089B0133A2
:1045A00000F0FB8254EA090327F0800B40F0F6820A
:1045B000089B002B40F0F7825F46002354AD089320
:1045C0000C933DE1012000220E9B069053F8041B42
:1045D0003BAD8DF883208DF8EC100E930C90F2E635
:1045E0004FF000090E9C089B54F8045B8DF88390F3
:1045F000002D00F0A1855A1C00F0A5861A464946F8
:10460000284603F0EDF90D90002801F050810D9B34
:104610009DF883205B1B0C9323EAE373CDF8209075
:104620000E940693CDF83490CDF83C90CDF84C9094
:10463000CDF8409085E747F0100717F0200900F00B
:10464000F2830E9B073323F00703D3F8049053F84B
:10465000084B0E93002327F4806B00228DF88320F3
:10466000089A511C00F0D48054EA09012BF080070D
:1046700040F0CD80002A40F00486002B9DD11BF035
:1046800001030C9300F0308430230DF24F158DF8A8
:104690004F31D5E00A9B5B420A939AF8006047F0DD
:1046A00004079CE5BD0600F1FD84FC0600F1EE85E3
:1046B000780600F1B286B90540F1E8850E9B0B99AA
:1046C00053F8042B554611700E93F2E69AF80060E9
:1046D0008DF8839083E59AF8006047F080077EE5C7
:1046E000524612F8016B2A2E01F08D82A6F130039A
:1046F000092B924698BF002201F2E5801AF8016B5F
:1047000002EB820203EB4202A6F13003092BF5D93A
:10471000089266E547F0100B1BF0200900F091832A
:104720000E9B073323F007031A4652F8084BD3F8C1
:1047300004900E92012390E7302278260E9B8DF88C
:10474000842053F8044B184A0E934FF000090223BB
:1047500047F0020B8DF8856018927EE79AF80060AA
:10476000682E03BF9AF8016047F400770AF1010A46
:1047700047F0400733E59AF800606C2E03BF9AF8C3
:10478000016047F020070AF1010A47F0100726E50B
:104790009AF8006047F0080721E500BFFFFFEF7FB0
:1047A000A4A10008A8A10008B4A10008099E3046F1
:1047B00002F0EEFD436818461B9303F099FD034693
:1047C00030461C931E4602F0E3FD83681993002EC9
:1047D0003FF480AD199B002B3FF47CAD199B1B78F7
:1047E000002B3FF477AD9AF8006047F48067F6E459
:1047F0009AF8006047F00107F1E49DF88330002B40
:104800007FF468AD9AF800608DF88340E7E4BB461A
:10481000012B00F0C381022B54AD1FD1189A04F074
:104820000F03D35C240944EA09744FEA191905F807
:10483000013D54EA0903F2D15F4654AB5B1B0C9374
:10484000089A0C9900238A42B8BF0A460D93069233
:104850000F939DF883201393109372E604F00703DF
:10486000E40844EA49744FEAD909303354EA0901AB
:104870002A4605F8013DF1D11BF0010FDCD0302BA9
:10488000DAD03023023A05F8013C54AB9B1A5F465C
:1048900015460C93D4E7652E40F3E980DDE9140159
:1048A00000220023FCF7EEF8002800F0E18101234C
:1048B000C8F80430299BC04A01330134072B2A94DD
:1048C0002993C8F8002000F3BF8408F10808229B50
:1048D000129A934280F2DC82169B179A1C44C8E914
:1048E0000023299B2A940133072B299300F3178473
:1048F00008F10808129B5D1E002D7FF7BCAD102D3E
:1049000041F35D81DFF8B492224649461026B9464C
:10491000299B0F46DDF824B0079C05E008F1080844
:10492000103D102D40F39D8401331032072BC8E950
:104930000076CDE92932F1DD2146584628AA03F058
:1049400075FD00287FF411ADDDE929320DF1AC08C9
:10495000E6E70A9B069AA3EB020BBBF1000F7FF779
:1049600070ADBBF1100F41F35280DFF85092414619
:104970002046A8464C461023299A079DDDF824902E
:1049800006E0ABF1100BBBF1100F01F1080119DDCE
:1049900001321030072AC1E90043CDE92920F0DDBA
:1049A0002946484628AA03F041FD00287FF4DDACE3
:1049B000DDE92920ABF1100BBBF1100F4FF0100314
:1049C0002BA9E5DC4546A1468846044601325C44F5
:1049D000072ACDE92924C8F80090C8F804B000F3EC
:1049E000918308F108082CE5BBF1100F40F3E38434
:1049F000DFF8C89141462046A8464C461023299A24
:104A0000079DDDF8249006E0ABF1100BBBF1100F11
:104A100001F1080119DD01321030072AC1E9004314
:104A2000CDE92920F0DD2946484628AA03F0FEFCFE
:104A300000287FF49AACDDE92920ABF1100BBBF123
:104A4000100F4FF010032BA9E5DC4546A146884620
:104A5000044601325C44072ACDE92924C8F80090B5
:104A6000C8F804B000F3D28108F10808F1E4129B01
:104A7000012B40F382810123299E01341E44072E1D
:104A8000C8F800502A94C8F80430299600F36C83C3
:104A900008F10808169B0136179A1C44072EC8E92E
:104AA0000023CDE9296400F36C8308F10808002293
:104AB000DDE914010023FBF7E5FF002840F07A81CF
:104AC000129B0136013B01351C44072EC8F80050EB
:104AD0002996C8F804302A9400F35F8108F1080889
:104AE0001A9B01361C44C8F80430072E24ABCDE9CC
:104AF0002964C8F800307FF7BCAC0799099828AA48
:104B000003F094FC00287FF430AC2A9C0DF1AC0833
:104B1000B1E4B9F1100F40F3C686DDE92921404622
:104B2000CDE91D36B84610244F46079EA946099D7B
:104B300004E0103F102F00F1080016DD0132204B79
:104B40001031072AC0E90034CDE92921F1DD3146D1
:104B5000284628AA03F06AFC00287FF406ACDDE9A9
:104B60002921103F102F2BA8E8DC4D46DDE91D362A
:104B7000B9464746804609EB010401321049072A2D
:104B8000CDE92924C8F80490C8F8001000F3408348
:104B90009DF8832008F108082CE4BB460A2C79F123
:104BA000000380F0FB82012330345F468DF84F41D3
:104BB0000C930DF24F1543E6E4A10008F8A100089C
:104BC000E8A100080799099828AA1D9303F02EFC74
:104BD00000287FF4CAAB2A9C1D9B0DF1AC081BE496
:104BE0000799099828AA03F021FC00287FF4BDAB9F
:104BF0002A9C0DF1AC0820E4102D40F3BE8610264F
:104C0000299B099FDDF81C9004E0103D102D08F150
:104C1000080817DD0133BA4A1034072BC8E900260B
:104C2000CDE92934F1DD4946384628AA03F0FEFBD8
:104C300000287FF49AABDDE92934103D102D0DF1E9
:104C4000AC08E7DC0133AE4A2C44072BCDE929340C
:104C5000C8F80450C8F800207FF715AC07990998E8
:104C600028AA03F0E3FB00287FF47FAB2A9C0AE428
:104C70002299002940F31081DDF84090129B99455C
:104C8000A8BF9946B9F1000F0BDD299B4C440133B5
:104C9000072BC8E900592A94299300F3818508F16C
:104CA0000808109EB9F1000FA8BFA6EB0906002E58
:104CB00000F3F582DDF840B07905AB4400F1AC8437
:104CC000229B129A934202DBFA0740F19283169AD2
:104CD00017991444C8E90012299A2A940132072A24
:104CE000299200F3A88508F10808129AAE18A6EBDD
:104CF0000B06D51AAE42A8BF2E46002E0DDD299B0D
:104D000034440133072BC8F800B0C8F804602A9473
:104D1000299300F3FC8508F10808002EA8BFAD1BFD
:104D2000002D7FF7A8AB102D40F34987DFF8D49111
:104D3000224649461026B946299B0F46DDF824B085
:104D4000079C05E008F10808103D102D40F389820A
:104D500001331032072BC8E90076CDE92932F1DDA5
:104D60002146584628AA03F061FB00287FF4FDAADB
:104D7000DDE929320DF1AC08E6E7FE073FF57BAE31
:104D80000123299E01341E44072EC8F800502A949E
:104D9000C8F8043029967FF7A1AE0799099828AA88
:104DA00003F044FB00287FF4E0AADDE929640DF15B
:104DB000AC0895E6129B5D1E002D7FF791AE102D7D
:104DC00040F31987224608974FF0100BDFF8349113
:104DD000099C079F05E008F10808103D102D40F3DD
:104DE000C78201361032072EC8E9009BCDE929623F
:104DF000F1DD3946204628AA03F018FB00287FF48D
:104E0000B4AADDE929620DF1AC08E6E70799099833
:104E100028AA03F00BFB00287FF4A7AA2A9C0DF117
:104E2000AC08FFF716BB17F0100377D117F040025C
:104E300000F0AC820E9A994652F8044B0E92A4B23E
:104E400008E41BF010030E9A54D11BF040014DD022
:104E500052F8044B99460E920123A4B2FFF7FDBB12
:104E600053F8044B0E93FB0653D47D064ED544F302
:104E7000C0394B4624B2FFF78EBB2D2364428DF818
:104E80008330BB464FF0010369EB4909FFF7E8BBEC
:104E9000F8077FF5F0AA1FE50123C8F80430299B25
:104EA000194A01330134072B2A942993C8F80020AA
:104EB00000F3688408F10808002940F02582129A5E
:104EC00007F0010313433FF4D6AA169B1799E21883
:104ED000C8E90013299B2A920133072B299300F379
:104EE000508308F1080820E254ADA9E41BF40079CE
:104EF00040F0A08252F8044B01230E92FFF7ADBBA5
:104F0000E8A10008F8A10008E4A10008B80500F134
:104F100079824FEAE4794B46FFF73DBB0E9B53F88D
:104F2000044B0E93FFF796BBDDE9140102460B46D6
:104F3000FBF7DAFD002840F0F785612E00F06C8564
:104F4000412E00F07F82089B013300F0948526F00B
:104F50002003472B069300F07B85DDE9141247F40C
:104F600080730F931346002BC0F2F4850C9300233B
:104F70008B461D930D93069B462B00F02B84452BEF
:104F800000F0148508990C9B01910221009126A93B
:104F9000049123A9039122A95A460998029100F08D
:104FA000AFFF069B0546472B40F0448617F0010FE4
:104FB000B9460F9F40F0F784269B5B1B1293069B1C
:104FC000472B00F0F182069B462B00F04284229B87
:104FD0001093109B069A013B412A229300F08A8588
:104FE0000021F2B2002B8DF89020B6BF2D222B228B
:104FF000109B8DF89120B8BFC3F10103092B40F33A
:1050000081850DF19F0C6246BA4F1C46104687FB06
:105010000312D917C1EBA20101EB8102A3EB4202FB
:105020003032632C00F8012C0B4600F1FF32ECDC2F
:105030003033811EDBB28C4502F8013C40F2FF8523
:105040000DF1920101E012F8013B944501F8013B9A
:10505000F9D10DF1A1030DF192021B1A134424AAF8
:105060009B1A1A93129B1A9A012B1A440C9240F322
:105070009E850C9B169A13440C9300230C9A29F4DA
:10508000806722EAE27247F480770F9306921393C7
:1050900010931D9B002B40F0B0829DF88320089355
:1050A000FFF74FBA0E9B0B9853F8041BC2175546D7
:1050B000C1E900020E93FFF7FCB98F4B189317F06C
:1050C000200949D00E9B073323F00703D3F804903F
:1050D00053F8084B0E93F80709D554EA090306D094
:1050E00030238DF8856047F002078DF88430022365
:1050F00027F4806BFFF7B1BABB46FFF70DBB7F4BC0
:105100001893DCE70799099828AA03F08FF900287B
:105110007FF42BA92A9C0DF1AC08FFF792B90799EF
:10512000099828AA03F082F900287FF41EA92A9C76
:105130000DF1AC08FFF7DEBB062B294628BF06237E
:105140002A4608950D9506936D4D0E940C930F917C
:1051500013911091FFF7F5B917F0100369D00E9B6A
:1051600053F8044B0E93B6E70799099828AA03F061
:105170005DF900287FF4F9A8DDE929640DF1AC0898
:1051800088E40799099828AA03F050F900287FF4C9
:10519000ECA8DDE929640DF1AC0888E400230BF4E8
:1051A0008062CDE90CA8069692461E46DDF8648022
:1051B00054AF0CE00023204649460A22FBF7D2FCFC
:1051C0000A2C79F100031BD3044689462F4620465A
:1051D0000A2200234946FBF7C5FC30327D1E01360A
:1051E00007F8012CBAF1000FE4D098F800309E4285
:1051F000E0D1FF2EDED00A2C79F1000380F0E080B0
:10520000CDF864801296DDE90CA8069EFFF714BB6A
:105210000799099828AA1D9303F008F900287FF43C
:10522000A4A89DF883202A9C1D9B0DF1AC08FFF7D4
:10523000E1B817F0400200F0B4800E9A994652F897
:10524000044B0E92A4B246E70799099828AA03F0E6
:10525000EDF800287FF489A82A9C0DF1AC08FFF72F
:1052600036BB14463A464F46914601332C44072B31
:10527000C8F80090C8F80450CDE929347FF7F9A8A0
:105280003BE4012BBB467FF4C6AA8CE40E9B0B9932
:1052900053F8042B554611600E93FFF70AB9102EF0
:1052A00040F3AD84DFF85C90424648462146A8466C
:1052B000B9464FF0100B0746299B099C079D04E057
:1052C0000832103E102E40F3488201331031072B74
:1052D000C2E9007BCDE92931F2DD2946204628AA22
:1052E00003F0A4F800287FF440A8DDE929312BAAB7
:1052F000E7E700BF67666666B4A10008C8A10008BA
:10530000DCA10008F8A10008169B1798E218C8E96C
:105310000003299B2A920133072B299300F3318143
:1053200008F108080029C0F20283129901338C1891
:10533000072BCDE92934C8F80050C8F804107FF7CE
:1053400098A8FFF7DABB2846CDF820900E9402F01B
:10535000CFFF20EAE073CDE90C099DF88320CDF85A
:105360003C90CDF84C90CDF840900693FFF7E9B80B
:105370001446089F01362C44072ECDE92964C8F84D
:105380000090C8F804507FF7A9AB06E517F4007940
:105390000E9B3DD053F8044B91460E93E4B2FFF7B9
:1053A00059B917F400790E9B40D053F8044B91463D
:1053B0000E93E4B28FE6299ADFF84C92FFF749BBCF
:1053C0001C9B1B99ED1A1A46284602F0BFFF98F85D
:1053D00001300BB108F10108204649460A2200239A
:1053E0000026FBF7BFFBEFE62D228DF88320FFF7A9
:1053F00098B8129AAE18A6EB0B06D51AAE42A8BF03
:105400002E468AE444F3C0194B4664B2FFF7C3B892
:1054100053F8044B0E93FFF71DB90E9B0B9953F8ED
:10542000042B554611800E93FFF743B853F8044BF5
:105430000E9350E652F8044B894601230E92E4B2D3
:10544000FFF70BB930238DF8843058238DF8853061
:10545000089B47F00204632B00F3E38200233BAD7B
:105460000D9347F481730F93DDE914121346002B5B
:105470002746C0F240820C9300238B461D9326F0F2
:1054800020030693612E00F01783412E7FF473AD45
:1054900022AA58460C9902F09BFE00224FF07F533F
:1054A000FBF788F802460B46CDE9102300220023C3
:1054B000FBF7E8FA08B101232293544B0C93089BA5
:1054C000CDE912A6CDE91E78DDE91067AB46DDF81F
:1054D00030A003F1FF39109506E00022002309F106
:1054E000FF39FBF7CFFAE8B90022494B304639467D
:1054F000FBF760F80F460646FBF70CFB0446FAF78D
:10550000EFFF0B46024639463046FAF79BFE1AF883
:105510000430B9F1FF3FD8464D4606460F460BF81A
:10552000013BDAD13046394600223A4BA946DDF834
:1055300048A0109DCDF84880CDE91001DDF87C80B1
:10554000139E1E9FFBF7C6FA002840F04482DDE957
:10555000100100222F4BFBF795FA10B1E10700F183
:105560003A824B46002B06DB302201335B440BF8BA
:10557000012B5B45FBD1ABEB0503B94612930F9FA3
:105580001DE50799099828AA02F050FF00287EF42B
:10559000ECAEDDE9293222990DF1AC08C2E6906D3E
:1055A00001F000FFFEF7B3BE229BDA1C109302DB72
:1055B000089A934204DD023E26F02003069308E594
:1055C000109B129A9342C0F2828119F0010F00F0F1
:1055D000A882169A13440C9319F4806F00F09082FD
:1055E000109B6726002B00F346810C9B23EAE37394
:1055F000069300230F9313934BE52D2200238DF880
:1056000083200893FEF7A0BFF8A10008C8A10008F6
:10561000000030400000E03F129B4246DDF84C8025
:10562000EB185E460893CDF830A010972146199FDD
:10563000DDF87090DDF824A0DDF81CB00F9B139509
:10564000B8F1000F2ED0002B6CD1013F08F1FF38CC
:105650001B9B4944C2E90039299B2A910133072B3E
:10566000299363DC0832089B38789B1B8342A8BFD0
:105670000346002B1C460ADD2998194401300728EF
:10568000C2E900632A9129905BDC38780832002C4B
:10569000B4BF0546051B002D15DC06440F9BB8F171
:1056A000000FD0D1002B3DD1DDE91235EB189E4221
:1056B000B346199790460C4628BF9B46DDF830A0AC
:1056C000109FFFF7FDBA102D40F36F821024299828
:1056D00004E0103D102D02F1080216DD0130A84B48
:1056E00010310728C2E90034CDE92901F1DD59461E
:1056F000504628AA02F09AFE00287EF436AEDDE974
:105700002901103D102D2BAAE8DC01309C4B2944C7
:105710000728CDE92901556013604EDC387808323E
:105720000644BBE70F9B013B0F9391E75946504658
:1057300028AA02F07BFE00287EF417AE2A992BAA35
:1057400091E75946504628AA02F070FE00287EF4E0
:105750000CAE38782A992BAA99E7454690463A46E6
:105760000C464F46914601333444072BCDE929348A
:10577000C8F80090C8F8046000F35D8108F10808DB
:10578000FFF798BA0799099828AA02F04FFE002857
:105790007EF4EBAD22992A9C0DF1AC08FFF78CBB8F
:1057A0000799099828AA02F041FE00287EF4DDAD91
:1057B0002A9C0DF1AC08FFF774BA5946504628AA46
:1057C00002F034FE00287EF4D0AD38782A992BAA56
:1057D000064463E708990C9B01910321009126A9D7
:1057E000049123A9039122A95A460998029100F035
:1057F00087FB03780546302B00F0C081229B089A76
:10580000B94613440F9FEC185846002200230C9908
:10581000FBF738F910B12346FFF7CFBB269BA34215
:10582000BFF4CBAB30215A1C26921970269B9C42A8
:10583000F9D8FFF7C2BB0799099828AA02F0F6FD2C
:1058400000287EF492AD229B2A9C0DF1AC08FFF754
:105850004CBA229A002A109240F3B981089909F0B3
:1058600001030B4340F040816626109B0C9319F412
:10587000806F3FF4BAAE19990B78FF2B00F0D681F8
:105880000024109A204604E001300131FF2B00F083
:105890006481934280F26181D21A4B78002BF3D15C
:1058A0000B780134F2E7DDE92921FFF764B9089BA1
:1058B0009DF883200E9406930C9308900F901390FC
:1058C0001090FEF73EBE00230893FEF78ABC129BA1
:1058D000169A9A18109B0C92002B40F35D81672654
:1058E000C5E70799099828AA02F0A0FD00283EF410
:1058F000E8ADFEF740BD26F0200306932D22DDE93A
:1059000014349B4604F100431D920C93BAE50799A9
:10591000099828AA02F08AFD00287EF426AD229D6F
:10592000129B2A9C0DF1AC085D1BFFF7F6B94E42A5
:10593000103180F2818141461024A846DFF8409062
:10594000DDF824B0079D04E00831103E102E40F32E
:10595000998001331032072BC1E90094CDE9293237
:10596000F2DD2946584628AA02F060FD00287EF4A0
:10597000FCACDDE929322BA9E7E7299BFFF762B9E7
:10598000F8A10008079B5B6EDD0707D4079B9B8986
:105990009C0503D4079B986D01F004FD4FF0FF3385
:1059A0000B93FEF7F1BC089BEC182DE70221009148
:1059B00008995A464C1C26A9049123A9039122A9AF
:1059C0000C9B09980194029100F09AFA0546B94699
:1059D0002C440F9F18E7129B26930C9B1BF8012C5D
:1059E000D97B5B468A4209D1302003F8010C269B03
:1059F0005A1E269213F8012C9142F6D0392A0BBF79
:105A00000C9A0132927AD2B203F8012CB3E5299AAA
:105A1000DFF83492FEF7DABF30238DF88430782334
:105A200014E50998591C01F02FFD0546002800F0E7
:105A3000F6800D9015E50799099828AA02F0F6FC62
:105A400000287EF492AC2A9C0DF1AC08FFF732B925
:105A5000089B002B08BF0123089347F480730F9322
:105A6000159B002BC0F2A980DDF850B01D900C935F
:105A70000D90FFF787BA0623089326F020030693BC
:105A8000FFF76BBA4546884601333244072BCDE910
:105A90002932C8F80090C8F804607FF722AA079955
:105AA000099828AA02F0C2FC00287EF45EACDDE969
:105AB00029320DF1AC0838E422AA58460C9902F0BC
:105AC00087FB00224FF07F53FAF774FD02460B4626
:105AD000CDE9102300220023FAF7D4FF08B10123F7
